{
  "_format": "hh-sol-artifact-1",
  "contractName": "Domains",
  "sourceName": "contracts/Domains.sol",
  "abi": [
    {
      "inputs": [
        {
          "internalType": "string",
          "name": "_tld",
          "type": "string"
        }
      ],
      "stateMutability": "payable",
      "type": "constructor"
    },
    {
      "inputs": [],
      "name": "AlreadyRegistered",
      "type": "error"
    },
    {
      "inputs": [
        {
          "internalType": "string",
          "name": "name",
          "type": "string"
        }
      ],
      "name": "InvalidName",
      "type": "error"
    },
    {
      "inputs": [],
      "name": "Unauthorized",
      "type": "error"
    },
    {
      "anonymous": false,
      "inputs": [
        {
          "indexed": true,
          "internalType": "address",
          "name": "owner",
          "type": "address"
        },
        {
          "indexed": true,
          "internalType": "address",
          "name": "approved",
          "type": "address"
        },
        {
          "indexed": true,
          "internalType": "uint256",
          "name": "tokenId",
          "type": "uint256"
        }
      ],
      "name": "Approval",
      "type": "event"
    },
    {
      "anonymous": false,
      "inputs": [
        {
          "indexed": true,
          "internalType": "address",
          "name": "owner",
          "type": "address"
        },
        {
          "indexed": true,
          "internalType": "address",
          "name": "operator",
          "type": "address"
        },
        {
          "indexed": false,
          "internalType": "bool",
          "name": "approved",
          "type": "bool"
        }
      ],
      "name": "ApprovalForAll",
      "type": "event"
    },
    {
      "anonymous": false,
      "inputs": [
        {
          "indexed": true,
          "internalType": "address",
          "name": "from",
          "type": "address"
        },
        {
          "indexed": true,
          "internalType": "address",
          "name": "to",
          "type": "address"
        },
        {
          "indexed": true,
          "internalType": "uint256",
          "name": "tokenId",
          "type": "uint256"
        }
      ],
      "name": "Transfer",
      "type": "event"
    },
    {
      "inputs": [
        {
          "internalType": "address",
          "name": "to",
          "type": "address"
        },
        {
          "internalType": "uint256",
          "name": "tokenId",
          "type": "uint256"
        }
      ],
      "name": "approve",
      "outputs": [],
      "stateMutability": "nonpayable",
      "type": "function"
    },
    {
      "inputs": [
        {
          "internalType": "address",
          "name": "owner",
          "type": "address"
        }
      ],
      "name": "balanceOf",
      "outputs": [
        {
          "internalType": "uint256",
          "name": "",
          "type": "uint256"
        }
      ],
      "stateMutability": "view",
      "type": "function"
    },
    {
      "inputs": [
        {
          "internalType": "string",
          "name": "",
          "type": "string"
        }
      ],
      "name": "domains",
      "outputs": [
        {
          "internalType": "address",
          "name": "",
          "type": "address"
        }
      ],
      "stateMutability": "view",
      "type": "function"
    },
    {
      "inputs": [
        {
          "internalType": "string",
          "name": "name",
          "type": "string"
        }
      ],
      "name": "getAddress",
      "outputs": [
        {
          "internalType": "address",
          "name": "",
          "type": "address"
        }
      ],
      "stateMutability": "view",
      "type": "function"
    },
    {
      "inputs": [],
      "name": "getAllNames",
      "outputs": [
        {
          "internalType": "string[]",
          "name": "",
          "type": "string[]"
        }
      ],
      "stateMutability": "view",
      "type": "function"
    },
    {
      "inputs": [
        {
          "internalType": "uint256",
          "name": "tokenId",
          "type": "uint256"
        }
      ],
      "name": "getApproved",
      "outputs": [
        {
          "internalType": "address",
          "name": "",
          "type": "address"
        }
      ],
      "stateMutability": "view",
      "type": "function"
    },
    {
      "inputs": [
        {
          "internalType": "string",
          "name": "name",
          "type": "string"
        }
      ],
      "name": "getMusic",
      "outputs": [
        {
          "internalType": "string",
          "name": "",
          "type": "string"
        }
      ],
      "stateMutability": "view",
      "type": "function"
    },
    {
      "inputs": [
        {
          "internalType": "address",
          "name": "owner",
          "type": "address"
        },
        {
          "internalType": "address",
          "name": "operator",
          "type": "address"
        }
      ],
      "name": "isApprovedForAll",
      "outputs": [
        {
          "internalType": "bool",
          "name": "",
          "type": "bool"
        }
      ],
      "stateMutability": "view",
      "type": "function"
    },
    {
      "inputs": [],
      "name": "isOwner",
      "outputs": [
        {
          "internalType": "bool",
          "name": "",
          "type": "bool"
        }
      ],
      "stateMutability": "view",
      "type": "function"
    },
    {
      "inputs": [
        {
          "internalType": "string",
          "name": "",
          "type": "string"
        }
      ],
      "name": "musics",
      "outputs": [
        {
          "internalType": "string",
          "name": "",
          "type": "string"
        }
      ],
      "stateMutability": "view",
      "type": "function"
    },
    {
      "inputs": [],
      "name": "name",
      "outputs": [
        {
          "internalType": "string",
          "name": "",
          "type": "string"
        }
      ],
      "stateMutability": "view",
      "type": "function"
    },
    {
      "inputs": [
        {
          "internalType": "uint256",
          "name": "",
          "type": "uint256"
        }
      ],
      "name": "names",
      "outputs": [
        {
          "internalType": "string",
          "name": "",
          "type": "string"
        }
      ],
      "stateMutability": "view",
      "type": "function"
    },
    {
      "inputs": [],
      "name": "owner",
      "outputs": [
        {
          "internalType": "address payable",
          "name": "",
          "type": "address"
        }
      ],
      "stateMutability": "view",
      "type": "function"
    },
    {
      "inputs": [
        {
          "internalType": "uint256",
          "name": "tokenId",
          "type": "uint256"
        }
      ],
      "name": "ownerOf",
      "outputs": [
        {
          "internalType": "address",
          "name": "",
          "type": "address"
        }
      ],
      "stateMutability": "view",
      "type": "function"
    },
    {
      "inputs": [
        {
          "internalType": "string",
          "name": "name",
          "type": "string"
        }
      ],
      "name": "price",
      "outputs": [
        {
          "internalType": "uint256",
          "name": "",
          "type": "uint256"
        }
      ],
      "stateMutability": "pure",
      "type": "function"
    },
    {
      "inputs": [
        {
          "internalType": "string",
          "name": "name",
          "type": "string"
        }
      ],
      "name": "register",
      "outputs": [],
      "stateMutability": "payable",
      "type": "function"
    },
    {
      "inputs": [
        {
          "internalType": "address",
          "name": "from",
          "type": "address"
        },
        {
          "internalType": "address",
          "name": "to",
          "type": "address"
        },
        {
          "internalType": "uint256",
          "name": "tokenId",
          "type": "uint256"
        }
      ],
      "name": "safeTransferFrom",
      "outputs": [],
      "stateMutability": "nonpayable",
      "type": "function"
    },
    {
      "inputs": [
        {
          "internalType": "address",
          "name": "from",
          "type": "address"
        },
        {
          "internalType": "address",
          "name": "to",
          "type": "address"
        },
        {
          "internalType": "uint256",
          "name": "tokenId",
          "type": "uint256"
        },
        {
          "internalType": "bytes",
          "name": "_data",
          "type": "bytes"
        }
      ],
      "name": "safeTransferFrom",
      "outputs": [],
      "stateMutability": "nonpayable",
      "type": "function"
    },
    {
      "inputs": [
        {
          "internalType": "address",
          "name": "operator",
          "type": "address"
        },
        {
          "internalType": "bool",
          "name": "approved",
          "type": "bool"
        }
      ],
      "name": "setApprovalForAll",
      "outputs": [],
      "stateMutability": "nonpayable",
      "type": "function"
    },
    {
      "inputs": [
        {
          "internalType": "string",
          "name": "name",
          "type": "string"
        },
        {
          "internalType": "string",
          "name": "music",
          "type": "string"
        }
      ],
      "name": "setMusic",
      "outputs": [],
      "stateMutability": "nonpayable",
      "type": "function"
    },
    {
      "inputs": [
        {
          "internalType": "bytes4",
          "name": "interfaceId",
          "type": "bytes4"
        }
      ],
      "name": "supportsInterface",
      "outputs": [
        {
          "internalType": "bool",
          "name": "",
          "type": "bool"
        }
      ],
      "stateMutability": "view",
      "type": "function"
    },
    {
      "inputs": [],
      "name": "symbol",
      "outputs": [
        {
          "internalType": "string",
          "name": "",
          "type": "string"
        }
      ],
      "stateMutability": "view",
      "type": "function"
    },
    {
      "inputs": [],
      "name": "tld",
      "outputs": [
        {
          "internalType": "string",
          "name": "",
          "type": "string"
        }
      ],
      "stateMutability": "view",
      "type": "function"
    },
    {
      "inputs": [
        {
          "internalType": "uint256",
          "name": "tokenId",
          "type": "uint256"
        }
      ],
      "name": "tokenURI",
      "outputs": [
        {
          "internalType": "string",
          "name": "",
          "type": "string"
        }
      ],
      "stateMutability": "view",
      "type": "function"
    },
    {
      "inputs": [
        {
          "internalType": "address",
          "name": "from",
          "type": "address"
        },
        {
          "internalType": "address",
          "name": "to",
          "type": "address"
        },
        {
          "internalType": "uint256",
          "name": "tokenId",
          "type": "uint256"
        }
      ],
      "name": "transferFrom",
      "outputs": [],
      "stateMutability": "nonpayable",
      "type": "function"
    },
    {
      "inputs": [
        {
          "internalType": "string",
          "name": "name",
          "type": "string"
        }
      ],
      "name": "valid",
      "outputs": [
        {
          "internalType": "bool",
          "name": "",
          "type": "bool"
        }
      ],
      "stateMutability": "pure",
      "type": "function"
    },
    {
      "inputs": [],
      "name": "withdraw",
      "outputs": [],
      "stateMutability": "nonpayable",
      "type": "function"
    }
  ],
  "bytecode": "0x6080604052604051806107a0016040528061076b8152602001620055b761076b9139600a908051906020019062000038929190620002c8565b506040518060400160405280600d81526020017f3c2f746578743e3c2f7376673e00000000000000000000000000000000000000815250600b908051906020019062000086929190620002c8565b5060405162005d2238038062005d228339818101604052810190620000ac919062000515565b6040518060400160405280601581526020017f466c61707079204e616d696e67205365727669636500000000000000000000008152506040518060400160405280600381526020017f464c500000000000000000000000000000000000000000000000000000000000815250816000908051906020019062000130929190620002c8565b50806001908051906020019062000149929190620002c8565b50505033600760006101000a81548173ffffffffffffffffffffffffffffffffffffffff021916908373ffffffffffffffffffffffffffffffffffffffff1602179055508060099080519060200190620001a5929190620002c8565b50620001f26040518060400160405280601881526020017f2573206e616d652073657276696365206465706c6f796564000000000000000081525082620001f960201b62001c791760201c565b5062000663565b6200029b828260405160240162000212929190620005c3565b6040516020818303038152906040527f4b5c4277000000000000000000000000000000000000000000000000000000007bffffffffffffffffffffffffffffffffffffffffffffffffffffffff19166020820180517bffffffffffffffffffffffffffffffffffffffffffffffffffffffff83818316178352505050506200029f60201b60201c565b5050565b60008151905060006a636f6e736f6c652e6c6f679050602083016000808483855afa5050505050565b828054620002d6906200062d565b90600052602060002090601f016020900481019282620002fa576000855562000346565b82601f106200031557805160ff191683800117855562000346565b8280016001018555821562000346579182015b828111156200034557825182559160200191906001019062000328565b5b50905062000355919062000359565b5090565b5b80821115620003745760008160009055506001016200035a565b5090565b6000604051905090565b600080fd5b600080fd5b600080fd5b600080fd5b6000601f19601f8301169050919050565b7f4e487b7100000000000000000000000000000000000000000000000000000000600052604160045260246000fd5b620003e18262000396565b810181811067ffffffffffffffff82111715620004035762000402620003a7565b5b80604052505050565b60006200041862000378565b9050620004268282620003d6565b919050565b600067ffffffffffffffff821115620004495762000448620003a7565b5b620004548262000396565b9050602081019050919050565b60005b838110156200048157808201518184015260208101905062000464565b8381111562000491576000848401525b50505050565b6000620004ae620004a8846200042b565b6200040c565b905082815260208101848484011115620004cd57620004cc62000391565b5b620004da84828562000461565b509392505050565b600082601f830112620004fa57620004f96200038c565b5b81516200050c84826020860162000497565b91505092915050565b6000602082840312156200052e576200052d62000382565b5b600082015167ffffffffffffffff8111156200054f576200054e62000387565b5b6200055d84828501620004e2565b91505092915050565b600081519050919050565b600082825260208201905092915050565b60006200058f8262000566565b6200059b818562000571565b9350620005ad81856020860162000461565b620005b88162000396565b840191505092915050565b60006040820190508181036000830152620005df818562000582565b90508181036020830152620005f5818462000582565b90509392505050565b7f4e487b7100000000000000000000000000000000000000000000000000000000600052602260045260246000fd5b600060028204905060018216806200064657607f821691505b602082108114156200065d576200065c620005fe565b5b50919050565b614f4480620006736000396000f3fe60806040526004361061019c5760003560e01c806370a08231116100ec578063b88d4fde1161008a578063e985e9c511610064578063e985e9c514610624578063f2c298be14610661578063fb825e5f1461067d578063fe2c6198146106a85761019c565b8063b88d4fde14610581578063bf40fac1146105aa578063c87b56dd146105e75761019c565b806395d89b41116100c657806395d89b41146104c75780639791c097146104f2578063a22cb4651461052f578063a96f5611146105585761019c565b806370a08231146104345780638da5cb5b146104715780638f32d59b1461049c5761019c565b8063264492351161015957806342842e0e1161013357806342842e0e146103545780634622ab031461037d5780636352211e146103ba57806366ddd588146103f75761019c565b806326449235146102d55780632d551432146103125780633ccfd60b1461033d5761019c565b806301ffc9a7146101a157806306fdde03146101de578063081812fc14610209578063095ea7b314610246578063188be5661461026f57806323b872dd146102ac575b600080fd5b3480156101ad57600080fd5b506101c860048036038101906101c391906131fa565b6106e5565b6040516101d59190613242565b60405180910390f35b3480156101ea57600080fd5b506101f36107c7565b60405161020091906132f6565b60405180910390f35b34801561021557600080fd5b50610230600480360381019061022b919061334e565b610859565b60405161023d91906133bc565b60405180910390f35b34801561025257600080fd5b5061026d60048036038101906102689190613403565b6108de565b005b34801561027b57600080fd5b5061029660048036038101906102919190613578565b6109f6565b6040516102a391906132f6565b60405180910390f35b3480156102b857600080fd5b506102d360048036038101906102ce91906135c1565b610aac565b005b3480156102e157600080fd5b506102fc60048036038101906102f79190613578565b610b0c565b60405161030991906133bc565b60405180910390f35b34801561031e57600080fd5b50610327610b55565b60405161033491906132f6565b60405180910390f35b34801561034957600080fd5b50610352610be3565b005b34801561036057600080fd5b5061037b600480360381019061037691906135c1565b610ca9565b005b34801561038957600080fd5b506103a4600480360381019061039f919061334e565b610cc9565b6040516103b191906132f6565b60405180910390f35b3480156103c657600080fd5b506103e160048036038101906103dc919061334e565b610d69565b6040516103ee91906133bc565b60405180910390f35b34801561040357600080fd5b5061041e60048036038101906104199190613674565b610e1b565b60405161042b91906132f6565b60405180910390f35b34801561044057600080fd5b5061045b600480360381019061045691906136c1565b610ece565b60405161046891906136fd565b60405180910390f35b34801561047d57600080fd5b50610486610f86565b6040516104939190613739565b60405180910390f35b3480156104a857600080fd5b506104b1610fac565b6040516104be9190613242565b60405180910390f35b3480156104d357600080fd5b506104dc611004565b6040516104e991906132f6565b60405180910390f35b3480156104fe57600080fd5b5061051960048036038101906105149190613674565b611096565b6040516105269190613242565b60405180910390f35b34801561053b57600080fd5b5061055660048036038101906105519190613780565b61114a565b005b34801561056457600080fd5b5061057f600480360381019061057a91906137c0565b611160565b005b34801561058d57600080fd5b506105a860048036038101906105a391906138e2565b61123b565b005b3480156105b657600080fd5b506105d160048036038101906105cc9190613674565b61129d565b6040516105de91906133bc565b60405180910390f35b3480156105f357600080fd5b5061060e6004803603810190610609919061334e565b6112e8565b60405161061b91906132f6565b60405180910390f35b34801561063057600080fd5b5061064b60048036038101906106469190613965565b61143a565b6040516106589190613242565b60405180910390f35b61067b60048036038101906106769190613674565b6114ce565b005b34801561068957600080fd5b506106926119fd565b60405161069f9190613ab1565b60405180910390f35b3480156106b457600080fd5b506106cf60048036038101906106ca9190613674565b611b9d565b6040516106dc91906136fd565b60405180910390f35b60007f80ac58cd000000000000000000000000000000000000000000000000000000007bffffffffffffffffffffffffffffffffffffffffffffffffffffffff1916827bffffffffffffffffffffffffffffffffffffffffffffffffffffffff191614806107b057507f5b5e139f000000000000000000000000000000000000000000000000000000007bffffffffffffffffffffffffffffffffffffffffffffffffffffffff1916827bffffffffffffffffffffffffffffffffffffffffffffffffffffffff1916145b806107c057506107bf82611d15565b5b9050919050565b6060600080546107d690613b02565b80601f016020809104026020016040519081016040528092919081815260200182805461080290613b02565b801561084f5780601f106108245761010080835404028352916020019161084f565b820191906000526020600020905b81548152906001019060200180831161083257829003601f168201915b5050505050905090565b600061086482611d7f565b6108a3576040517f08c379a000000000000000000000000000000000000000000000000000000000815260040161089a90613ba6565b60405180910390fd5b6004600083815260200190815260200160002060009054906101000a900473ffffffffffffffffffffffffffffffffffffffff169050919050565b60006108e982610d69565b90508073ffffffffffffffffffffffffffffffffffffffff168373ffffffffffffffffffffffffffffffffffffffff16141561095a576040517f08c379a000000000000000000000000000000000000000000000000000000000815260040161095190613c38565b60405180910390fd5b8073ffffffffffffffffffffffffffffffffffffffff16610979611deb565b73ffffffffffffffffffffffffffffffffffffffff1614806109a857506109a7816109a2611deb565b61143a565b5b6109e7576040517f08c379a00000000000000000000000000000000000000000000000000000000081526004016109de90613cca565b60405180910390fd5b6109f18383611df3565b505050565b600d818051602081018201805184825260208301602085012081835280955050505050506000915090508054610a2b90613b02565b80601f0160208091040260200160405190810160405280929190818152602001828054610a5790613b02565b8015610aa45780601f10610a7957610100808354040283529160200191610aa4565b820191906000526020600020905b815481529060010190602001808311610a8757829003601f168201915b505050505081565b610abd610ab7611deb565b82611eac565b610afc576040517f08c379a0000000000000000000000000000000000000000000000000000000008152600401610af390613d5c565b60405180910390fd5b610b07838383611f8a565b505050565b600c818051602081018201805184825260208301602085012081835280955050505050506000915054906101000a900473ffffffffffffffffffffffffffffffffffffffff1681565b60098054610b6290613b02565b80601f0160208091040260200160405190810160405280929190818152602001828054610b8e90613b02565b8015610bdb5780601f10610bb057610100808354040283529160200191610bdb565b820191906000526020600020905b815481529060010190602001808311610bbe57829003601f168201915b505050505081565b610beb610fac565b610bf457600080fd5b600047905060003373ffffffffffffffffffffffffffffffffffffffff1682604051610c1f90613dad565b60006040518083038185875af1925050503d8060008114610c5c576040519150601f19603f3d011682016040523d82523d6000602084013e610c61565b606091505b5050905080610ca5576040517f08c379a0000000000000000000000000000000000000000000000000000000008152600401610c9c90613e0e565b60405180910390fd5b5050565b610cc48383836040518060200160405280600081525061123b565b505050565b600e6020528060005260406000206000915090508054610ce890613b02565b80601f0160208091040260200160405190810160405280929190818152602001828054610d1490613b02565b8015610d615780601f10610d3657610100808354040283529160200191610d61565b820191906000526020600020905b815481529060010190602001808311610d4457829003601f168201915b505050505081565b6000806002600084815260200190815260200160002060009054906101000a900473ffffffffffffffffffffffffffffffffffffffff169050600073ffffffffffffffffffffffffffffffffffffffff168173ffffffffffffffffffffffffffffffffffffffff161415610e12576040517f08c379a0000000000000000000000000000000000000000000000000000000008152600401610e0990613ea0565b60405180910390fd5b80915050919050565b6060600d8383604051610e2f929190613ef0565b90815260200160405180910390208054610e4890613b02565b80601f0160208091040260200160405190810160405280929190818152602001828054610e7490613b02565b8015610ec15780601f10610e9657610100808354040283529160200191610ec1565b820191906000526020600020905b815481529060010190602001808311610ea457829003601f168201915b5050505050905092915050565b60008073ffffffffffffffffffffffffffffffffffffffff168273ffffffffffffffffffffffffffffffffffffffff161415610f3f576040517f08c379a0000000000000000000000000000000000000000000000000000000008152600401610f3690613f7b565b60405180910390fd5b600360008373ffffffffffffffffffffffffffffffffffffffff1673ffffffffffffffffffffffffffffffffffffffff168152602001908152602001600020549050919050565b600760009054906101000a900473ffffffffffffffffffffffffffffffffffffffff1681565b6000600760009054906101000a900473ffffffffffffffffffffffffffffffffffffffff1673ffffffffffffffffffffffffffffffffffffffff163373ffffffffffffffffffffffffffffffffffffffff1614905090565b60606001805461101390613b02565b80601f016020809104026020016040519081016040528092919081815260200182805461103f90613b02565b801561108c5780601f106110615761010080835404028352916020019161108c565b820191906000526020600020905b81548152906001019060200180831161106f57829003601f168201915b5050505050905090565b600060036110e784848080601f016020809104026020016040519081016040528093929190818152602001838380828437600081840152601f19601f820116905080830192505050505050506121f1565b101580156111425750600861113f84848080601f016020809104026020016040519081016040528093929190818152602001838380828437600081840152601f19601f820116905080830192505050505050506121f1565b11155b905092915050565b61115c611155611deb565b83836123a6565b5050565b3373ffffffffffffffffffffffffffffffffffffffff16600c8585604051611189929190613ef0565b908152602001604051809103902060009054906101000a900473ffffffffffffffffffffffffffffffffffffffff1673ffffffffffffffffffffffffffffffffffffffff1614611205576040517f82b4290000000000000000000000000000000000000000000000000000000000815260040160405180910390fd5b8181600d8686604051611219929190613ef0565b90815260200160405180910390209190611234929190613065565b5050505050565b61124c611246611deb565b83611eac565b61128b576040517f08c379a000000000000000000000000000000000000000000000000000000000815260040161128290613d5c565b60405180910390fd5b61129784848484612513565b50505050565b6000600c83836040516112b1929190613ef0565b908152602001604051809103902060009054906101000a900473ffffffffffffffffffffffffffffffffffffffff16905092915050565b60606112f382611d7f565b611332576040517f08c379a00000000000000000000000000000000000000000000000000000000081526004016113299061400d565b60405180910390fd5b600060066000848152602001908152602001600020805461135290613b02565b80601f016020809104026020016040519081016040528092919081815260200182805461137e90613b02565b80156113cb5780601f106113a0576101008083540402835291602001916113cb565b820191906000526020600020905b8154815290600101906020018083116113ae57829003601f168201915b5050505050905060006113dc61256f565b90506000815114156113f2578192505050611435565b60008251111561142757808260405160200161140f92919061405e565b60405160208183030381529060405292505050611435565b61143084612586565b925050505b919050565b6000600560008473ffffffffffffffffffffffffffffffffffffffff1673ffffffffffffffffffffffffffffffffffffffff16815260200190815260200160002060008373ffffffffffffffffffffffffffffffffffffffff1673ffffffffffffffffffffffffffffffffffffffff16815260200190815260200160002060009054906101000a900460ff16905092915050565b600073ffffffffffffffffffffffffffffffffffffffff16600c83836040516114f8929190613ef0565b908152602001604051809103902060009054906101000a900473ffffffffffffffffffffffffffffffffffffffff1673ffffffffffffffffffffffffffffffffffffffff1614611574576040517f3a81d6fc00000000000000000000000000000000000000000000000000000000815260040160405180910390fd5b61157e8282611096565b6115c15781816040517f7f19f48d0000000000000000000000000000000000000000000000000000000081526004016115b89291906140af565b60405180910390fd5b60003073ffffffffffffffffffffffffffffffffffffffff1663fe2c619884846040518363ffffffff1660e01b81526004016115fe9291906140af565b602060405180830381865afa15801561161b573d6000803e3d6000fd5b505050506040513d601f19601f8201168201806040525081019061163f91906140e8565b905080341015611684576040517f08c379a000000000000000000000000000000000000000000000000000000000815260040161167b90614161565b60405180910390fd5b60008383600960405160200161169c93929190614261565b60405160208183030381529060405290506000600a82600b6040516020016116c693929190614292565b604051602081830303815290604052905060006116e3600861262d565b9050600061173487878080601f016020809104026020016040519081016040528093929190818152602001838380828437600081840152601f19601f820116905080830192505050505050506121f1565b905060006117418261263b565b9050611835604051806060016040528060318152602001614e656031913989898080601f016020809104026020016040519081016040528093929190818152602001838380828437600081840152601f19601f82011690508083019250505050505050600980546117b190613b02565b80601f01602080910402602001604051908101604052809291908181526020018280546117dd90613b02565b801561182a5780601f106117ff5761010080835404028352916020019161182a565b820191906000526020600020905b81548152906001019060200180831161180d57829003601f168201915b50505050508661279c565b600061186b866118448761283e565b846040516020016118579392919061443f565b60405160208183030381529060405261283e565b905060008160405160200161188091906144e8565b60405160208183030381529060405290506118b2604051806060016040528060398152602001614e2c603991396129d6565b6118f16040518060400160405280600e81526020017f46696e616c20746f6b656e55524900000000000000000000000000000000000081525082611c79565b611912604051806060016040528060398152602001614e96603991396129d6565b61191c3386612a6f565b6119268582612a8d565b33600c8b8b604051611939929190613ef0565b908152602001604051809103902060006101000a81548173ffffffffffffffffffffffffffffffffffffffff021916908373ffffffffffffffffffffffffffffffffffffffff1602179055506119c46040518060400160405280601881526020017f25732068617320726567697374657265642061206e616d65000000000000000081525033612b01565b8989600e600088815260200190815260200160002091906119e6929190613065565b506119f16008612b9d565b50505050505050505050565b60606000611a0b600861262d565b67ffffffffffffffff811115611a2457611a2361344d565b5b604051908082528060200260200182016040528015611a5757816020015b6060815260200190600190039081611a425790505b50905060005b611a67600861262d565b811015611b9557600e60008281526020019081526020016000208054611a8c90613b02565b80601f0160208091040260200160405190810160405280929190818152602001828054611ab890613b02565b8015611b055780601f10611ada57610100808354040283529160200191611b05565b820191906000526020600020905b815481529060010190602001808311611ae857829003601f168201915b5050505050828281518110611b1d57611b1c61450a565b5b6020026020010181905250611b826040518060400160405280601781526020017f4e616d6520666f7220746f6b656e20256420697320257300000000000000000081525082848481518110611b7557611b7461450a565b5b6020026020010151612bb3565b8080611b8d90614568565b915050611a5d565b508091505090565b600080611bed84848080601f016020809104026020016040519081016040528093929190818152602001838380828437600081840152601f19601f820116905080830192505050505050506121f1565b905060008111611c32576040517f08c379a0000000000000000000000000000000000000000000000000000000008152600401611c29906145fd565b60405180910390fd5b6003811415611c4c576706f05b59d3b20000915050611c73565b6004811415611c6657670429d069189e0000915050611c73565b67016345785d8a00009150505b92915050565b611d118282604051602401611c8f92919061461d565b6040516020818303038152906040527f4b5c4277000000000000000000000000000000000000000000000000000000007bffffffffffffffffffffffffffffffffffffffffffffffffffffffff19166020820180517bffffffffffffffffffffffffffffffffffffffffffffffffffffffff8381831617835250505050612c52565b5050565b60007f01ffc9a7000000000000000000000000000000000000000000000000000000007bffffffffffffffffffffffffffffffffffffffffffffffffffffffff1916827bffffffffffffffffffffffffffffffffffffffffffffffffffffffff1916149050919050565b60008073ffffffffffffffffffffffffffffffffffffffff166002600084815260200190815260200160002060009054906101000a900473ffffffffffffffffffffffffffffffffffffffff1673ffffffffffffffffffffffffffffffffffffffff1614159050919050565b600033905090565b816004600083815260200190815260200160002060006101000a81548173ffffffffffffffffffffffffffffffffffffffff021916908373ffffffffffffffffffffffffffffffffffffffff160217905550808273ffffffffffffffffffffffffffffffffffffffff16611e6683610d69565b73ffffffffffffffffffffffffffffffffffffffff167f8c5be1e5ebec7d5bd14f71427d1e84f3dd0314c0f7b2291e5b200ac8c7c3b92560405160405180910390a45050565b6000611eb782611d7f565b611ef6576040517f08c379a0000000000000000000000000000000000000000000000000000000008152600401611eed906146c6565b60405180910390fd5b6000611f0183610d69565b90508073ffffffffffffffffffffffffffffffffffffffff168473ffffffffffffffffffffffffffffffffffffffff161480611f7057508373ffffffffffffffffffffffffffffffffffffffff16611f5884610859565b73ffffffffffffffffffffffffffffffffffffffff16145b80611f815750611f80818561143a565b5b91505092915050565b8273ffffffffffffffffffffffffffffffffffffffff16611faa82610d69565b73ffffffffffffffffffffffffffffffffffffffff1614612000576040517f08c379a0000000000000000000000000000000000000000000000000000000008152600401611ff790614758565b60405180910390fd5b600073ffffffffffffffffffffffffffffffffffffffff168273ffffffffffffffffffffffffffffffffffffffff161415612070576040517f08c379a0000000000000000000000000000000000000000000000000000000008152600401612067906147ea565b60405180910390fd5b61207b838383612c7b565b612086600082611df3565b6001600360008573ffffffffffffffffffffffffffffffffffffffff1673ffffffffffffffffffffffffffffffffffffffff16815260200190815260200160002060008282546120d6919061480a565b925050819055506001600360008473ffffffffffffffffffffffffffffffffffffffff1673ffffffffffffffffffffffffffffffffffffffff168152602001908152602001600020600082825461212d919061483e565b92505081905550816002600083815260200190815260200160002060006101000a81548173ffffffffffffffffffffffffffffffffffffffff021916908373ffffffffffffffffffffffffffffffffffffffff160217905550808273ffffffffffffffffffffffffffffffffffffffff168473ffffffffffffffffffffffffffffffffffffffff167fddf252ad1be2c89b69c2b068fc378daa952ba7f163c4a11628f55a4df523b3ef60405160405180910390a46121ec838383612c80565b505050565b60008060008084519050600092505b8082101561239b57600085838151811061221d5761221c61450a565b5b602001015160f81c60f81b9050608060f81b817effffffffffffffffffffffffffffffffffffffffffffffffffffffffffffff1916101561226c57600183612265919061483e565b9250612387565b60e060f81b817effffffffffffffffffffffffffffffffffffffffffffffffffffffffffffff191610156122ae576002836122a7919061483e565b9250612386565b60f060f81b817effffffffffffffffffffffffffffffffffffffffffffffffffffffffffffff191610156122f0576003836122e9919061483e565b9250612385565b60f8801b817effffffffffffffffffffffffffffffffffffffffffffffffffffffffffffff191610156123315760048361232a919061483e565b9250612384565b60fc60f81b817effffffffffffffffffffffffffffffffffffffffffffffffffffffffffffff191610156123735760058361236c919061483e565b9250612383565b600683612380919061483e565b92505b5b5b5b5b50828061239390614568565b935050612200565b829350505050919050565b8173ffffffffffffffffffffffffffffffffffffffff168373ffffffffffffffffffffffffffffffffffffffff161415612415576040517f08c379a000000000000000000000000000000000000000000000000000000000815260040161240c906148e0565b60405180910390fd5b80600560008573ffffffffffffffffffffffffffffffffffffffff1673ffffffffffffffffffffffffffffffffffffffff16815260200190815260200160002060008473ffffffffffffffffffffffffffffffffffffffff1673ffffffffffffffffffffffffffffffffffffffff16815260200190815260200160002060006101000a81548160ff0219169083151502179055508173ffffffffffffffffffffffffffffffffffffffff168373ffffffffffffffffffffffffffffffffffffffff167f17307eab39ab6107e8899845ad3d59bd9653f200f220920489ca2b5937696c31836040516125069190613242565b60405180910390a3505050565b61251e848484611f8a565b61252a84848484612c85565b612569576040517f08c379a000000000000000000000000000000000000000000000000000000000815260040161256090614972565b60405180910390fd5b50505050565b606060405180602001604052806000815250905090565b606061259182611d7f565b6125d0576040517f08c379a00000000000000000000000000000000000000000000000000000000081526004016125c790614a04565b60405180910390fd5b60006125da61256f565b905060008151116125fa5760405180602001604052806000815250612625565b806126048461263b565b60405160200161261592919061405e565b6040516020818303038152906040525b915050919050565b600081600001549050919050565b60606000821415612683576040518060400160405280600181526020017f30000000000000000000000000000000000000000000000000000000000000008152509050612797565b600082905060005b600082146126b557808061269e90614568565b915050600a826126ae9190614a53565b915061268b565b60008167ffffffffffffffff8111156126d1576126d061344d565b5b6040519080825280601f01601f1916602001820160405280156127035781602001600182028036833780820191505090505b5090505b600085146127905760018261271c919061480a565b9150600a8561272b9190614a84565b6030612737919061483e565b60f81b81838151811061274d5761274c61450a565b5b60200101907effffffffffffffffffffffffffffffffffffffffffffffffffffffffffffff1916908160001a905350600a856127899190614a53565b9450612707565b8093505050505b919050565b612838848484846040516024016127b69493929190614ab5565b6040516020818303038152906040527f9fd009f5000000000000000000000000000000000000000000000000000000007bffffffffffffffffffffffffffffffffffffffffffffffffffffffff19166020820180517bffffffffffffffffffffffffffffffffffffffffffffffffffffffff8381831617835250505050612c52565b50505050565b6060600082519050600081141561286757604051806020016040528060008152509150506129d1565b60006003600283612878919061483e565b6128829190614a53565b600461288e9190614b0f565b9050600060208261289f919061483e565b67ffffffffffffffff8111156128b8576128b761344d565b5b6040519080825280601f01601f1916602001820160405280156128ea5781602001600182028036833780820191505090505b5090506000604051806060016040528060408152602001614ecf604091399050600181016020830160005b8681101561298e5760038101905062ffffff818a015116603f8160121c168401518060081b905060ff603f83600c1c1686015116810190508060081b905060ff603f8360061c1686015116810190508060081b905060ff603f831686015116810190508060e01b90508084526004840193505050612915565b5060038606600181146129a857600281146129b8576129c3565b613d3d60f01b60028303526129c3565b603d60f81b60018303525b508484525050819450505050505b919050565b612a6c816040516024016129ea91906132f6565b6040516020818303038152906040527f41304fac000000000000000000000000000000000000000000000000000000007bffffffffffffffffffffffffffffffffffffffffffffffffffffffff19166020820180517bffffffffffffffffffffffffffffffffffffffffffffffffffffffff8381831617835250505050612c52565b50565b612a89828260405180602001604052806000815250612e0d565b5050565b612a9682611d7f565b612ad5576040517f08c379a0000000000000000000000000000000000000000000000000000000008152600401612acc90614bdb565b60405180910390fd5b80600660008481526020019081526020016000209080519060200190612afc9291906130eb565b505050565b612b998282604051602401612b17929190614bfb565b6040516020818303038152906040527f319af333000000000000000000000000000000000000000000000000000000007bffffffffffffffffffffffffffffffffffffffffffffffffffffffff19166020820180517bffffffffffffffffffffffffffffffffffffffffffffffffffffffff8381831617835250505050612c52565b5050565b6001816000016000828254019250508190555050565b612c4d838383604051602401612bcb93929190614c2b565b6040516020818303038152906040527fa3f5c739000000000000000000000000000000000000000000000000000000007bffffffffffffffffffffffffffffffffffffffffffffffffffffffff19166020820180517bffffffffffffffffffffffffffffffffffffffffffffffffffffffff8381831617835250505050612c52565b505050565b60008151905060006a636f6e736f6c652e6c6f679050602083016000808483855afa5050505050565b505050565b505050565b6000612ca68473ffffffffffffffffffffffffffffffffffffffff16612e68565b15612e00578373ffffffffffffffffffffffffffffffffffffffff1663150b7a02612ccf611deb565b8786866040518563ffffffff1660e01b8152600401612cf19493929190614cc5565b6020604051808303816000875af1925050508015612d2d57506040513d601f19601f82011682018060405250810190612d2a9190614d26565b60015b612db0573d8060008114612d5d576040519150601f19603f3d011682016040523d82523d6000602084013e612d62565b606091505b50600081511415612da8576040517f08c379a0000000000000000000000000000000000000000000000000000000008152600401612d9f90614972565b60405180910390fd5b805181602001fd5b63150b7a0260e01b7bffffffffffffffffffffffffffffffffffffffffffffffffffffffff1916817bffffffffffffffffffffffffffffffffffffffffffffffffffffffff191614915050612e05565b600190505b949350505050565b612e178383612e8b565b612e246000848484612c85565b612e63576040517f08c379a0000000000000000000000000000000000000000000000000000000008152600401612e5a90614972565b60405180910390fd5b505050565b6000808273ffffffffffffffffffffffffffffffffffffffff163b119050919050565b600073ffffffffffffffffffffffffffffffffffffffff168273ffffffffffffffffffffffffffffffffffffffff161415612efb576040517f08c379a0000000000000000000000000000000000000000000000000000000008152600401612ef290614d9f565b60405180910390fd5b612f0481611d7f565b15612f44576040517f08c379a0000000000000000000000000000000000000000000000000000000008152600401612f3b90614e0b565b60405180910390fd5b612f5060008383612c7b565b6001600360008473ffffffffffffffffffffffffffffffffffffffff1673ffffffffffffffffffffffffffffffffffffffff1681526020019081526020016000206000828254612fa0919061483e565b92505081905550816002600083815260200190815260200160002060006101000a81548173ffffffffffffffffffffffffffffffffffffffff021916908373ffffffffffffffffffffffffffffffffffffffff160217905550808273ffffffffffffffffffffffffffffffffffffffff16600073ffffffffffffffffffffffffffffffffffffffff167fddf252ad1be2c89b69c2b068fc378daa952ba7f163c4a11628f55a4df523b3ef60405160405180910390a461306160008383612c80565b5050565b82805461307190613b02565b90600052602060002090601f01602090048101928261309357600085556130da565b82601f106130ac57803560ff19168380011785556130da565b828001600101855582156130da579182015b828111156130d95782358255916020019190600101906130be565b5b5090506130e79190613171565b5090565b8280546130f790613b02565b90600052602060002090601f0160209004810192826131195760008555613160565b82601f1061313257805160ff1916838001178555613160565b82800160010185558215613160579182015b8281111561315f578251825591602001919060010190613144565b5b50905061316d9190613171565b5090565b5b8082111561318a576000816000905550600101613172565b5090565b6000604051905090565b600080fd5b600080fd5b60007fffffffff0000000000000000000000000000000000000000000000000000000082169050919050565b6131d7816131a2565b81146131e257600080fd5b50565b6000813590506131f4816131ce565b92915050565b6000602082840312156132105761320f613198565b5b600061321e848285016131e5565b91505092915050565b60008115159050919050565b61323c81613227565b82525050565b60006020820190506132576000830184613233565b92915050565b600081519050919050565b600082825260208201905092915050565b60005b8381101561329757808201518184015260208101905061327c565b838111156132a6576000848401525b50505050565b6000601f19601f8301169050919050565b60006132c88261325d565b6132d28185613268565b93506132e2818560208601613279565b6132eb816132ac565b840191505092915050565b6000602082019050818103600083015261331081846132bd565b905092915050565b6000819050919050565b61332b81613318565b811461333657600080fd5b50565b60008135905061334881613322565b92915050565b60006020828403121561336457613363613198565b5b600061337284828501613339565b91505092915050565b600073ffffffffffffffffffffffffffffffffffffffff82169050919050565b60006133a68261337b565b9050919050565b6133b68161339b565b82525050565b60006020820190506133d160008301846133ad565b92915050565b6133e08161339b565b81146133eb57600080fd5b50565b6000813590506133fd816133d7565b92915050565b6000806040838503121561341a57613419613198565b5b6000613428858286016133ee565b925050602061343985828601613339565b9150509250929050565b600080fd5b600080fd5b7f4e487b7100000000000000000000000000000000000000000000000000000000600052604160045260246000fd5b613485826132ac565b810181811067ffffffffffffffff821117156134a4576134a361344d565b5b80604052505050565b60006134b761318e565b90506134c3828261347c565b919050565b600067ffffffffffffffff8211156134e3576134e261344d565b5b6134ec826132ac565b9050602081019050919050565b82818337600083830152505050565b600061351b613516846134c8565b6134ad565b90508281526020810184848401111561353757613536613448565b5b6135428482856134f9565b509392505050565b600082601f83011261355f5761355e613443565b5b813561356f848260208601613508565b91505092915050565b60006020828403121561358e5761358d613198565b5b600082013567ffffffffffffffff8111156135ac576135ab61319d565b5b6135b88482850161354a565b91505092915050565b6000806000606084860312156135da576135d9613198565b5b60006135e8868287016133ee565b93505060206135f9868287016133ee565b925050604061360a86828701613339565b9150509250925092565b600080fd5b600080fd5b60008083601f84011261363457613633613443565b5b8235905067ffffffffffffffff81111561365157613650613614565b5b60208301915083600182028301111561366d5761366c613619565b5b9250929050565b6000806020838503121561368b5761368a613198565b5b600083013567ffffffffffffffff8111156136a9576136a861319d565b5b6136b58582860161361e565b92509250509250929050565b6000602082840312156136d7576136d6613198565b5b60006136e5848285016133ee565b91505092915050565b6136f781613318565b82525050565b600060208201905061371260008301846136ee565b92915050565b60006137238261337b565b9050919050565b61373381613718565b82525050565b600060208201905061374e600083018461372a565b92915050565b61375d81613227565b811461376857600080fd5b50565b60008135905061377a81613754565b92915050565b6000806040838503121561379757613796613198565b5b60006137a5858286016133ee565b92505060206137b68582860161376b565b9150509250929050565b600080600080604085870312156137da576137d9613198565b5b600085013567ffffffffffffffff8111156137f8576137f761319d565b5b6138048782880161361e565b9450945050602085013567ffffffffffffffff8111156138275761382661319d565b5b6138338782880161361e565b925092505092959194509250565b600067ffffffffffffffff82111561385c5761385b61344d565b5b613865826132ac565b9050602081019050919050565b600061388561388084613841565b6134ad565b9050828152602081018484840111156138a1576138a0613448565b5b6138ac8482856134f9565b509392505050565b600082601f8301126138c9576138c8613443565b5b81356138d9848260208601613872565b91505092915050565b600080600080608085870312156138fc576138fb613198565b5b600061390a878288016133ee565b945050602061391b878288016133ee565b935050604061392c87828801613339565b925050606085013567ffffffffffffffff81111561394d5761394c61319d565b5b613959878288016138b4565b91505092959194509250565b6000806040838503121561397c5761397b613198565b5b600061398a858286016133ee565b925050602061399b858286016133ee565b9150509250929050565b600081519050919050565b600082825260208201905092915050565b6000819050602082019050919050565b600082825260208201905092915050565b60006139ed8261325d565b6139f781856139d1565b9350613a07818560208601613279565b613a10816132ac565b840191505092915050565b6000613a2783836139e2565b905092915050565b6000602082019050919050565b6000613a47826139a5565b613a5181856139b0565b935083602082028501613a63856139c1565b8060005b85811015613a9f5784840389528151613a808582613a1b565b9450613a8b83613a2f565b925060208a01995050600181019050613a67565b50829750879550505050505092915050565b60006020820190508181036000830152613acb8184613a3c565b905092915050565b7f4e487b7100000000000000000000000000000000000000000000000000000000600052602260045260246000fd5b60006002820490506001821680613b1a57607f821691505b60208210811415613b2e57613b2d613ad3565b5b50919050565b7f4552433732313a20617070726f76656420717565727920666f72206e6f6e657860008201527f697374656e7420746f6b656e0000000000000000000000000000000000000000602082015250565b6000613b90602c83613268565b9150613b9b82613b34565b604082019050919050565b60006020820190508181036000830152613bbf81613b83565b9050919050565b7f4552433732313a20617070726f76616c20746f2063757272656e74206f776e6560008201527f7200000000000000000000000000000000000000000000000000000000000000602082015250565b6000613c22602183613268565b9150613c2d82613bc6565b604082019050919050565b60006020820190508181036000830152613c5181613c15565b9050919050565b7f4552433732313a20617070726f76652063616c6c6572206973206e6f74206f7760008201527f6e6572206e6f7220617070726f76656420666f7220616c6c0000000000000000602082015250565b6000613cb4603883613268565b9150613cbf82613c58565b604082019050919050565b60006020820190508181036000830152613ce381613ca7565b9050919050565b7f4552433732313a207472616e736665722063616c6c6572206973206e6f74206f60008201527f776e6572206e6f7220617070726f766564000000000000000000000000000000602082015250565b6000613d46603183613268565b9150613d5182613cea565b604082019050919050565b60006020820190508181036000830152613d7581613d39565b9050919050565b600081905092915050565b50565b6000613d97600083613d7c565b9150613da282613d87565b600082019050919050565b6000613db882613d8a565b9150819050919050565b7f4661696c656420746f207769746864726177204d617469630000000000000000600082015250565b6000613df8601883613268565b9150613e0382613dc2565b602082019050919050565b60006020820190508181036000830152613e2781613deb565b9050919050565b7f4552433732313a206f776e657220717565727920666f72206e6f6e657869737460008201527f656e7420746f6b656e0000000000000000000000000000000000000000000000602082015250565b6000613e8a602983613268565b9150613e9582613e2e565b604082019050919050565b60006020820190508181036000830152613eb981613e7d565b9050919050565b600081905092915050565b6000613ed78385613ec0565b9350613ee48385846134f9565b82840190509392505050565b6000613efd828486613ecb565b91508190509392505050565b7f4552433732313a2062616c616e636520717565727920666f7220746865207a6560008201527f726f206164647265737300000000000000000000000000000000000000000000602082015250565b6000613f65602a83613268565b9150613f7082613f09565b604082019050919050565b60006020820190508181036000830152613f9481613f58565b9050919050565b7f45524337323155524953746f726167653a2055524920717565727920666f722060008201527f6e6f6e6578697374656e7420746f6b656e000000000000000000000000000000602082015250565b6000613ff7603183613268565b915061400282613f9b565b604082019050919050565b6000602082019050818103600083015261402681613fea565b9050919050565b60006140388261325d565b6140428185613ec0565b9350614052818560208601613279565b80840191505092915050565b600061406a828561402d565b9150614076828461402d565b91508190509392505050565b600061408e8385613268565b935061409b8385846134f9565b6140a4836132ac565b840190509392505050565b600060208201905081810360008301526140ca818486614082565b90509392505050565b6000815190506140e281613322565b92915050565b6000602082840312156140fe576140fd613198565b5b600061410c848285016140d3565b91505092915050565b7f4e6f7420656e6f756768204d4154494320706169640000000000000000000000600082015250565b600061414b601583613268565b915061415682614115565b602082019050919050565b6000602082019050818103600083015261417a8161413e565b9050919050565b7f2e00000000000000000000000000000000000000000000000000000000000000600082015250565b60006141b7600183613ec0565b91506141c282614181565b600182019050919050565b60008190508160005260206000209050919050565b600081546141ef81613b02565b6141f98186613ec0565b94506001821660008114614214576001811461422557614258565b60ff19831686528186019350614258565b61422e856141cd565b60005b8381101561425057815481890152600182019150602081019050614231565b838801955050505b50505092915050565b600061426e828587613ecb565b9150614279826141aa565b915061428582846141e2565b9150819050949350505050565b600061429e82866141e2565b91506142aa828561402d565b91506142b682846141e2565b9150819050949350505050565b7f7b226e616d65223a202200000000000000000000000000000000000000000000600082015250565b60006142f9600a83613ec0565b9150614304826142c3565b600a82019050919050565b7f222c20226465736372697074696f6e223a20224120646f6d61696e206f6e207460008201527f686520666c61707079206e616d652073657276696365222c2022696d6167652260208201527f3a2022646174613a696d6167652f7376672b786d6c3b6261736536342c000000604082015250565b6000614391605d83613ec0565b915061439c8261430f565b605d82019050919050565b7f222c226c656e677468223a220000000000000000000000000000000000000000600082015250565b60006143dd600c83613ec0565b91506143e8826143a7565b600c82019050919050565b7f227d000000000000000000000000000000000000000000000000000000000000600082015250565b6000614429600283613ec0565b9150614434826143f3565b600282019050919050565b600061444a826142ec565b9150614456828661402d565b915061446182614384565b915061446d828561402d565b9150614478826143d0565b9150614484828461402d565b915061448f8261441c565b9150819050949350505050565b7f646174613a6170706c69636174696f6e2f6a736f6e3b6261736536342c000000600082015250565b60006144d2601d83613ec0565b91506144dd8261449c565b601d82019050919050565b60006144f3826144c5565b91506144ff828461402d565b915081905092915050565b7f4e487b7100000000000000000000000000000000000000000000000000000000600052603260045260246000fd5b7f4e487b7100000000000000000000000000000000000000000000000000000000600052601160045260246000fd5b600061457382613318565b91507fffffffffffffffffffffffffffffffffffffffffffffffffffffffffffffffff8214156145a6576145a5614539565b5b600182019050919050565b7f446f6d61696e206e616d6520746f6f20736d616c6c0000000000000000000000600082015250565b60006145e7601583613268565b91506145f2826145b1565b602082019050919050565b60006020820190508181036000830152614616816145da565b9050919050565b6000604082019050818103600083015261463781856132bd565b9050818103602083015261464b81846132bd565b90509392505050565b7f4552433732313a206f70657261746f7220717565727920666f72206e6f6e657860008201527f697374656e7420746f6b656e0000000000000000000000000000000000000000602082015250565b60006146b0602c83613268565b91506146bb82614654565b604082019050919050565b600060208201905081810360008301526146df816146a3565b9050919050565b7f4552433732313a207472616e736665722066726f6d20696e636f72726563742060008201527f6f776e6572000000000000000000000000000000000000000000000000000000602082015250565b6000614742602583613268565b915061474d826146e6565b604082019050919050565b6000602082019050818103600083015261477181614735565b9050919050565b7f4552433732313a207472616e7366657220746f20746865207a65726f2061646460008201527f7265737300000000000000000000000000000000000000000000000000000000602082015250565b60006147d4602483613268565b91506147df82614778565b604082019050919050565b60006020820190508181036000830152614803816147c7565b9050919050565b600061481582613318565b915061482083613318565b92508282101561483357614832614539565b5b828203905092915050565b600061484982613318565b915061485483613318565b9250827fffffffffffffffffffffffffffffffffffffffffffffffffffffffffffffffff0382111561488957614888614539565b5b828201905092915050565b7f4552433732313a20617070726f766520746f2063616c6c657200000000000000600082015250565b60006148ca601983613268565b91506148d582614894565b602082019050919050565b600060208201905081810360008301526148f9816148bd565b9050919050565b7f4552433732313a207472616e7366657220746f206e6f6e20455243373231526560008201527f63656976657220696d706c656d656e7465720000000000000000000000000000602082015250565b600061495c603283613268565b915061496782614900565b604082019050919050565b6000602082019050818103600083015261498b8161494f565b9050919050565b7f4552433732314d657461646174613a2055524920717565727920666f72206e6f60008201527f6e6578697374656e7420746f6b656e0000000000000000000000000000000000602082015250565b60006149ee602f83613268565b91506149f982614992565b604082019050919050565b60006020820190508181036000830152614a1d816149e1565b9050919050565b7f4e487b7100000000000000000000000000000000000000000000000000000000600052601260045260246000fd5b6000614a5e82613318565b9150614a6983613318565b925082614a7957614a78614a24565b5b828204905092915050565b6000614a8f82613318565b9150614a9a83613318565b925082614aaa57614aa9614a24565b5b828206905092915050565b60006080820190508181036000830152614acf81876132bd565b90508181036020830152614ae381866132bd565b90508181036040830152614af781856132bd565b9050614b0660608301846136ee565b95945050505050565b6000614b1a82613318565b9150614b2583613318565b9250817fffffffffffffffffffffffffffffffffffffffffffffffffffffffffffffffff0483118215151615614b5e57614b5d614539565b5b828202905092915050565b7f45524337323155524953746f726167653a2055524920736574206f66206e6f6e60008201527f6578697374656e7420746f6b656e000000000000000000000000000000000000602082015250565b6000614bc5602e83613268565b9150614bd082614b69565b604082019050919050565b60006020820190508181036000830152614bf481614bb8565b9050919050565b60006040820190508181036000830152614c1581856132bd565b9050614c2460208301846133ad565b9392505050565b60006060820190508181036000830152614c4581866132bd565b9050614c5460208301856136ee565b8181036040830152614c6681846132bd565b9050949350505050565b600081519050919050565b600082825260208201905092915050565b6000614c9782614c70565b614ca18185614c7b565b9350614cb1818560208601613279565b614cba816132ac565b840191505092915050565b6000608082019050614cda60008301876133ad565b614ce760208301866133ad565b614cf460408301856136ee565b8181036060830152614d068184614c8c565b905095945050505050565b600081519050614d20816131ce565b92915050565b600060208284031215614d3c57614d3b613198565b5b6000614d4a84828501614d11565b91505092915050565b7f4552433732313a206d696e7420746f20746865207a65726f2061646472657373600082015250565b6000614d89602083613268565b9150614d9482614d53565b602082019050919050565b60006020820190508181036000830152614db881614d7c565b9050919050565b7f4552433732313a20746f6b656e20616c7265616479206d696e74656400000000600082015250565b6000614df5601c83613268565b9150614e0082614dbf565b602082019050919050565b60006020820190508181036000830152614e2481614de8565b905091905056fe0a2d2d2d2d2d2d2d2d2d2d2d2d2d2d2d2d2d2d2d2d2d2d2d2d2d2d2d2d2d2d2d2d2d2d2d2d2d2d2d2d2d2d2d2d2d2d2d2d2d2d2d2d2d2d2d2d5265676973746572696e672025732e2573206f6e2074686520636f6e7472616374207769746820746f6b656e49442025642d2d2d2d2d2d2d2d2d2d2d2d2d2d2d2d2d2d2d2d2d2d2d2d2d2d2d2d2d2d2d2d2d2d2d2d2d2d2d2d2d2d2d2d2d2d2d2d2d2d2d2d2d2d2d2d0a4142434445464748494a4b4c4d4e4f505152535455565758595a6162636465666768696a6b6c6d6e6f707172737475767778797a303132333435363738392b2fa26469706673582212204020b047d0f939a93c8fbadbae3a2eece9de884d198a0409a99555721e3d08d864736f6c634300080a00333c73766720786d6c6e733d22687474703a2f2f7777772e77332e6f72672f323030302f737667222077696474683d2232373022206865696768743d22323730222066696c6c3d226e6f6e65223e3c706174682066696c6c3d2275726c282361292220643d224d302030683237307632373048307a222f3e3c646566733e3c66696c7465722069643d22622220636f6c6f722d696e746572706f6c6174696f6e2d66696c746572733d2273524742222066696c746572556e6974733d227573657253706163654f6e55736522206865696768743d22323730222077696474683d22323730223e3c666544726f70536861646f772064783d2230222064793d22312220737464446576696174696f6e3d22322220666c6f6f642d6f7061636974793d222e323235222077696474683d223230302522206865696768743d2232303025222f3e3c2f66696c7465723e3c2f646566733e3c7061746820643d224d37322e3836332034322e39343961342e33383220342e3338322030203020302d342e33393420306c2d31302e30383120362e3033322d362e383520332e3933342d31302e30383120362e30333261342e33383220342e3338322030203020312d342e33393420306c2d382e3031332d342e37323161342e353220342e35322030203020312d312e3538392d312e36313620342e353420342e35342030203020312d2e3630382d322e313837762d392e333161342e323720342e3237203020302031202e3537322d322e32303820342e323520342e323520302030203120312e3632352d312e3539356c372e3838342d342e353961342e33383220342e33383220302030203120342e33393420306c372e38383420342e353961342e353220342e353220302030203120312e35383920312e36313620342e353420342e3534203020302031202e36303820322e31383776362e3033326c362e38352d342e303635762d362e30333261342e323720342e32372030203020302d2e3537322d322e32303820342e323520342e32352030203020302d312e3632352d312e3539354c34312e3435362032342e353961342e33383220342e3338322030203020302d342e33393420306c2d31342e38363420382e36353561342e323520342e32352030203020302d312e36323520312e35393520342e32373320342e3237332030203020302d2e35373220322e3230387631372e34343161342e323920342e3239203020302030202e35373220322e32303820342e323520342e323520302030203020312e36323520312e3539356c31342e38363420382e36353561342e33383220342e33383220302030203020342e33393420306c31302e3038312d352e39303120362e38352d342e3036352031302e3038312d352e39303161342e33383220342e33383220302030203120342e33393420306c372e38383420342e353961342e353220342e353220302030203120312e35383920312e36313620342e353420342e3534203020302031202e36303820322e31383776392e33313161342e323720342e32372030203020312d2e35373220322e32303820342e323520342e32352030203020312d312e36323520312e3539356c2d372e38383420342e37323161342e33383220342e3338322030203020312d342e33393420306c2d372e3838342d342e353961342e353220342e35322030203020312d312e3538392d312e36313620342e353320342e35332030203020312d2e3630382d322e313837762d362e3033326c2d362e383520342e30363576362e30333261342e323720342e3237203020302030202e35373220322e32303820342e323520342e323520302030203020312e36323520312e3539356c31342e38363420382e36353561342e33383220342e33383220302030203020342e33393420306c31342e3836342d382e36353561342e35343520342e35343520302030203020322e3139382d332e3830335635352e35333861342e323720342e32372030203020302d2e3537322d322e32303820342e323520342e32352030203020302d312e3632352d312e3539356c2d31342e3939332d382e3738367a222066696c6c3d2223666666222f3e3c646566733e3c6c696e6561724772616469656e742069643d2261222078313d2230222079313d2230222078323d22313730222079323d2232373022206772616469656e74556e6974733d227573657253706163654f6e557365223e3c73746f702073746f702d636f6c6f723d2223636235656565222f3e3c73746f70206f66667365743d2231222073746f702d636f6c6f723d22233063376534222073746f702d6f7061636974793d222e3939222f3e3c2f6c696e6561724772616469656e743e3c2f646566733e3c7465787420783d2237302220793d223233312220666f6e742d73697a653d223230222066696c6c3d2223666666222066696c7465723d2275726c282362292220666f6e742d66616d696c793d22506c7573204a616b617274612053616e732c44656a6156752053616e732c4e6f746f20436f6c6f7220456d6f6a692c4170706c6520436f6c6f7220456d6f6a692c73616e732d73657269662220666f6e742d7765696768743d22626f6c64223e",
  "linkReferences": {},
  "deployedLinkReferences": {}
}